:020000040800F2
:1000000000500020211D0008691D0008691D00081E
:10001000691D0008691D0008691D00080000000036
:10002000000000000000000000000000691D000842
:10003000691D000800000000691D0008351900084E
:10004000691D0008691D0008691D0008691D000878
:10005000691D0008691D0008691D0008691D000868
:10006000691D0008691D0008691D00086D11000860
:10007000691D0008691D0008691D0008691D000848
:10008000691D0008691D0008A1110008691D00080C
:10009000691D0008691D0008691D0008691D000828
:1000A000691D0008691D0008691D0008691D000818
:1000B000691D0008691D0008691D0008691D000808
:1000C000691D0008691D0008691D0008691D0008F8
:1000D000691D0008691D0008691D0008691D0008E8
:1000E000691D0008691D0008691D00080000000066
:1000F0000000000000000000000000000000000000
:0C01000000000000000000005FF808F1A3
:1001100010B5054C237833B9044B13B10448AFF341
:1001200000800123237010BDDC01002000000000CE
:100130001C4D000808B5034B1BB103490348AFF33E
:10014000008008BD00000000E00100201C4D0008F8
:10015000034613F8012B002AFBD1181A0138704707
:1001600081F0004102E000BF83F0004330B54FEA68
:1001700041044FEA430594EA050F08BF90EA020FD5
:100180001FBF54EA000C55EA020C7FEA645C7FEA68
:10019000655C00F0E2804FEA5454D4EB5555B8BF8B
:1001A0006D420CDD2C4480EA020281EA030382EAFC
:1001B000000083EA010180EA020281EA0303362D8E
:1001C00088BF30BD11F0004F4FEA01314FF4801C61
:1001D0004CEA113102D0404261EB410113F0004F73
:1001E0004FEA03334CEA133302D0524263EB43032A
:1001F00094EA050F00F0A780A4F10104D5F1200EC8
:100200000DDB02FA0EFC22FA05F2801841F1000122
:1002100003FA0EF2801843FA05F359410EE0A5F1F6
:1002200020050EF1200E012A03FA0EFC28BF4CF027
:10023000020C43FA05F3C01851EBE37101F00045DD
:1002400007D54FF0000EDCF1000C7EEB00006EEBEA
:100250000101B1F5801F1BD3B1F5001F0CD3490874
:100260005FEA30004FEA3C0C04F101044FEA4452CB
:1002700012F5800F80F09A80BCF1004F08BF5FEA52
:10028000500C50F1000041EB045141EA050130BD32
:100290005FEA4C0C404141EB0101013C28BFB1F544
:1002A000801FE9D291F0000F04BF01460020B1FA8F
:1002B00081F308BF2033A3F10B03B3F120020CDA62
:1002C0000C3208DD02F1140CC2F10C0201FA0CF040
:1002D00021FA02F10CE002F11402D8BFC2F1200CA5
:1002E00001FA02F120FA0CFCDCBF41EA0C0190405B
:1002F000E41AA2BF01EB0451294330BD6FEA0404A4
:100300001F3C1CDA0C340EDC04F11404C4F120028E
:1003100020FA04F001FA02F340EA030021FA04F3A0
:1003200045EA030130BDC4F10C04C4F1200220FAF7
:1003300002F001FA04F340EA0300294630BD21FA35
:1003400004F0294630BD94F0000F83F4801306BFFB
:1003500081F480110134013D4EE77FEA645C18BFEF
:100360007FEA655C29D094EA050F08BF90EA020F86
:1003700005D054EA000C04BF1946104630BD91EA7E
:10038000030F1EBF0021002030BD5FEA545C05D181
:100390004000494128BF41F0004130BD14F58004C0
:1003A0003CBF01F5801130BD01F0004545F0FE4134
:1003B00041F470014FF0000030BD7FEA645C1ABF69
:1003C000194610467FEA655C1CBF0B46024650EAA0
:1003D000013406BF52EA033591EA030F41F40021CC
:1003E00030BD00BF90F0000F04BF0021704730B552
:1003F0004FF4806404F132044FF000054FF0000127
:1004000050E700BF90F0000F04BF0021704730B5E7
:100410004FF4806404F1320410F0004548BF4042BC
:100420004FF000013EE700BF42004FEAE2014FEA11
:1004300031014FEA02701FBF12F07F4393F07F4FEC
:1004400081F06051704732F07F4208BF704793F0EF
:100450007F4F04BF41F40021704730B54FF4607402
:1004600001F0004521F000411CE700BF50EA010205
:1004700008BF704730B54FF000050AE050EA0102AE
:1004800008BF704730B511F0004502D5404261EB1E
:1004900041014FF4806404F132045FEA915C3FF45F
:1004A000D8AE4FF003025FEADC0C18BF03325FEAFC
:1004B000DC0C18BF033202EBDC02C2F1200300FAAD
:1004C00003FC20FA02F001FA03FE40EA0E0021FAD2
:1004D00002F11444BDE600BF70B54FF0FF0C4CF4C0
:1004E000E06C1CEA11541DBF1CEA135594EA0C0F72
:1004F00095EA0C0F00F0DEF82C4481EA030621EAAD
:100500004C5123EA4C5350EA013518BF52EA0335E7
:1005100041F4801143F4801338D0A0FB02CE4FF099
:100520000005E1FB02E506F00042E0FB03E54FF0C9
:100530000006E1FB03569CF0000F18BF4EF0010EC1
:10054000A4F1FF04B6F5007F64F5407404D25FEABD
:100550004E0E6D4146EB060642EAC62141EA555170
:100560004FEAC52040EA5E504FEACE2EB4F1FD0CB2
:1005700088BFBCF5E06F1ED8BEF1004F08BF5FEA30
:10058000500E50F1000041EB045170BD06F00046E2
:1005900046EA010140EA020081EA0301B4EB5C048F
:1005A000C2BFD4EB0C0541EA045170BD41F4801187
:1005B0004FF0000E013C00F3AB8014F1360FDEBFAC
:1005C000002001F0004170BDC4F10004203C35DA88
:1005D0000C341BDC04F11404C4F1200500FA05F30B
:1005E00020FA04F001FA05F240EA020001F00042AC
:1005F00021F0004110EBD37021FA04F642EB060122
:100600005EEA430E08BF20EAD37070BDC4F10C044B
:10061000C4F1200500FA04F320FA05F001FA04F20F
:1006200040EA020001F0004110EBD37041F10001FB
:100630005EEA430E08BF20EAD37070BDC4F1200506
:1006400000FA05F24EEA020E20FA04F301FA05F26E
:1006500043EA020321FA04F001F0004121FA04F216
:1006600020EA020000EBD3705EEA430E08BF20EAE6
:10067000D37070BD94F0000F0FD101F00046400020
:1006800041EB010111F4801F08BF013CF7D041EAA2
:10069000060195F0000F18BF704703F000465200A6
:1006A00043EB030313F4801F08BF013DF7D043EA77
:1006B0000603704794EA0C0F0CEA135518BF95EA2D
:1006C0000C0F0CD050EA410618BF52EA4306D1D1B4
:1006D00081EA030101F000414FF0000070BD50EAD3
:1006E000410606BF1046194652EA430619D094EA5D
:1006F0000C0F02D150EA013613D195EA0C0F05D147
:1007000052EA03361CBF104619460AD181EA03019A
:1007100001F0004141F0FE4141F470014FF0000052
:1007200070BD41F0FE4141F4780170BD70B54FF0ED
:10073000FF0C4CF4E06C1CEA11541DBF1CEA13556D
:1007400094EA0C0F95EA0C0F00F0A7F8A4EB05044F
:1007500081EA030E52EA03354FEA013100F0888046
:100760004FEA03334FF0805545EA131343EA12630F
:100770004FEA022245EA111545EA10654FEA0026C4
:100780000EF000419D4208BF964244F1FD0404F57D
:10079000407402D25B084FEA3202B61A65EB0305D9
:1007A0005B084FEA32024FF480104FF4002CB6EB96
:1007B000020E75EB030E22BFB61A754640EA0C0016
:1007C0005B084FEA3202B6EB020E75EB030E22BF56
:1007D000B61A754640EA5C005B084FEA3202B6EB97
:1007E000020E75EB030E22BFB61A754640EA9C0056
:1007F0005B084FEA3202B6EB020E75EB030E22BF26
:10080000B61A754640EADC0055EA060E18D04FEAE3
:10081000051545EA16754FEA06164FEAC30343EA83
:1008200052734FEAC2025FEA1C1CC0D111F4801F50
:100830000BD141EA00014FF000004FF0004CB6E749
:1008400011F4801F04BF01430020B4F1FD0C88BFE8
:10085000BCF5E06F3FF6AFAEB5EB030C04BFB6EBF3
:10086000020C5FEA500C50F1000041EB045170BDE6
:100870000EF0004E4EEA113114EB5C04C2BFD4EB13
:100880000C0541EA045170BD41F480114FF0000E97
:10089000013C90E645EA060E8DE60CEA135594EA13
:1008A0000C0F08BF95EA0C0F3FF43BAF94EA0C0F16
:1008B0000AD150EA01347FF434AF95EA0C0F7FF48B
:1008C00025AF104619462CE795EA0C0F06D152EADF
:1008D00003353FF4FDAE1046194622E750EA4106C3
:1008E00018BF52EA43067FF4C5AE50EA41047FF4D4
:1008F0000DAF52EA43057FF4EBAE12E74FF0FF3C39
:1009000006E000BF4FF0010C02E000BF4FF0010C09
:100910004DF804CD4FEA410C7FEA6C5C4FEA430C82
:1009200018BF7FEA6C5C1BD001B050EA410C0CBFD1
:1009300052EA430C91EA030F02BF90EA020F002033
:10094000704710F1000F91EA030F58BF994208BF9A
:1009500090422CBFD8176FEAE37040F00100704757
:100960004FEA410C7FEA6C5C02D150EA013C07D1AE
:100970004FEA430C7FEA6C5CD6D152EA033CD3D0F9
:100980005DF8040B704700BF8446104662468C46F3
:100990001946634600E000BF01B5FFF7B7FF002826
:1009A00048BF10F1000F01BD4DF808EDFFF7F4FF4F
:1009B0000CBF012000205DF808FB00BF4DF808EDDA
:1009C000FFF7EAFF34BF012000205DF808FB00BFFD
:1009D0004DF808EDFFF7E0FF94BF012000205DF81F
:1009E00008FB00BF4DF808EDFFF7CEFF94BF0120D4
:1009F00000205DF808FB00BF4DF808EDFFF7C4FFCD
:100A000034BF012000205DF808FB00BF4FEA410C15
:100A10007FEA6C5C02D150EA013C0AD14FEA430CF8
:100A20007FEA6C5C02D152EA033C02D14FF0000035
:100A300070474FF0010070474FEA410212F5001273
:100A400015D211D56FF47873B3EB625212D94FEA15
:100A5000C12343F0004343EA505311F0004F23FAFF
:100A600002F018BF404270474FF00000704750EA54
:100A7000013005D111F0004008BF6FF00040704711
:100A80004FF00000704700BF80F0004002E000BF60
:100A900081F0004142001FBF5FEA410392EA030F69
:100AA0007FEA226C7FEA236C6AD04FEA1262D2EBB3
:100AB0001363C1BFD218414048404140B8BF5B42B8
:100AC000192B88BF704710F0004F40F4000020F051
:100AD0007F4018BF404211F0004F41F4000121F067
:100AE0007F4118BF494292EA030F3FD0A2F10102B1
:100AF00041FA03FC10EB0C00C3F1200301FA03F1EF
:100B000000F0004302D5494260EB4000B0F5000F11
:100B100013D3B0F1807F06D340084FEA310102F1D0
:100B20000102FE2A51D2B1F1004F40EBC25008BF82
:100B300020F0010040EA03007047490040EB00004C
:100B4000013A28BFB0F5000FEDD2B0FA80FCACF14D
:100B5000080CB2EB0C0200FA0CF0AABF00EBC2507A
:100B600052421843BCBFD0401843704792F0000F68
:100B700081F4000106BF80F400000132013BB5E7BB
:100B80004FEA41037FEA226C18BF7FEA236C21D031
:100B900092EA030F04D092F0000F08BF0846704796
:100BA00090EA010F1CBF0020704712F07F4F04D164
:100BB000400028BF40F00040704712F100723CBF77
:100BC00000F50000704700F0004343F0FE4040F4A1
:100BD000000070477FEA226216BF08467FEA23635F
:100BE0000146420206BF5FEA412390EA010F40F44A
:100BF000800070474FF0000304E000BF10F0004396
:100C000048BF40425FEA000C08BF704743F096437C
:100C100001464FF000001CE050EA010208BF704797
:100C20004FF000030AE000BF50EA010208BF70471E
:100C300011F0004302D5404261EB41015FEA010C33
:100C400002BF84460146002043F0B64308BFA3F12B
:100C50008053A3F50003BCFA8CF2083AA3EBC2530D
:100C600010DB01FA02FC634400FA02FCC2F120022C
:100C7000BCF1004F20FA02F243EB020008BF20F063
:100C80000100704702F1200201FA02FCC2F12002C9
:100C900050EA4C0021FA02F243EB020008BF20EABE
:100CA000DC7070474FF0FF0C1CEAD0521EBF1CEAEC
:100CB000D15392EA0C0F93EA0C0F6FD01A4480EADA
:100CC000010C400218BF5FEA41211ED04FF00063C3
:100CD00043EA501043EA5111A0FB01310CF00040EF
:100CE000B1F5000F3EBF490041EAD3715B0040EA15
:100CF000010062F17F02FD2A1DD8B3F1004F40EBE5
:100D0000C25008BF20F00100704790F0000F0CF0B7
:100D1000004C08BF49024CEA502040EA51207F3A7B
:100D2000C2BFD2F1FF0340EAC250704740F4000056
:100D30004FF00003013A5DDC12F1190FDCBF00F047
:100D400000407047C2F10002410021FA02F1C2F1F5
:100D5000200200FA02FC5FEA310040F1000053EA91
:100D60004C0308BF20EADC70704792F0000F00F0DF
:100D7000004C02BF400010F4000F013AF9D040EAE5
:100D80000C0093F0000F01F0004C02BF490011F479
:100D9000000F013BF9D041EA0C018FE70CEAD15377
:100DA00092EA0C0F18BF93EA0C0F0AD030F0004CF7
:100DB00018BF31F0004CD8D180EA010000F00040AB
:100DC000704790F0000F17BF90F0004F084691F069
:100DD000000F91F0004F14D092EA0C0F01D14202A3
:100DE0000FD193EA0C0F03D14B0218BF084608D16C
:100DF00080EA010000F0004040F0FE4040F40000B6
:100E0000704740F0FE4040F4400070474FF0FF0C48
:100E10001CEAD0521EBF1CEAD15392EA0C0F93EA8F
:100E20000C0F69D0A2EB030280EA010C49024FEAE1
:100E3000402037D04FF0805343EA111143EA10139A
:100E40000CF000408B4238BF5B0042F17D024FF452
:100E5000000C8B4224BF5B1A40EA0C00B3EB510F2D
:100E600024BFA3EB510340EA5C00B3EB910F24BF16
:100E7000A3EB910340EA9C00B3EBD10F24BFA3EB9B
:100E8000D10340EADC001B0118BF5FEA1C1CE0D163
:100E9000FD2A3FF650AF8B4240EBC25008BF20F016
:100EA000010070470CF0004C4CEA50207F32C2BF6A
:100EB000D2F1FF0340EAC250704740F400004FF007
:100EC0000003013A37E792F0000F00F0004C02BF38
:100ED000400010F4000F013AF9D040EA0C0093F002
:100EE000000F01F0004C02BF490011F4000F013B5C
:100EF000F9D041EA0C0195E70CEAD15392EA0C0FC4
:100F000008D142027FF47DAF93EA0C0F7FF470AFFB
:100F1000084676E793EA0C0F04D14B023FF44CAF3E
:100F200008466EE730F0004C18BF31F0004CCAD1D3
:100F300030F000427FF45CAF31F000437FF43CAF0F
:100F40005FE700BF80B483B000AF0346FB7197F941
:100F50000730002B0CDBFB7903F01F02074997F9E0
:100F600007305B09012000FA02F2603341F82320C8
:100F700000BF0C37BD4680BC704700BF00E100E0F9
:100F800080B58AB000AF00F023FC6B4800F0A6FCEF
:100F900000F000FD00F084FD00F022FE00F084FB74
:100FA000012000F0A3FB00F067F900F0B1F96348FD
:100FB00000F02EFA40F674620021032000F08AFA55
:100FC00000F08EF940F6B83000F0C4FC07F11803C9
:100FD0000C2219465A4800F043FB07F11803184643
:100FE00001F0BEFB574B1B78002B00F09580554B52
:100FF00000221A70514B5B881A4640F6E44302FB0C
:1010000003F31846FFF7FAFD03464FF08B411846ED
:10101000FFF7FCFE03461A464B4B1A604A4B1B680F
:101020004A491846FFF7F2FE03461A46464B1A6035
:10103000454B1B6846491846FFF72AFD03461A46EA
:10104000414B1A60404B1B681846FFF7EDF902460A
:101050000B4607F110003F4901F08AFB07F110032E
:1010600019463D4801F0B3FB2A23BB8107F10C036D
:101070001946394801F09CFB384B00221A60384B66
:101080001B78002B05D0364B00221A70334B0122FF
:101090001A60324B1A6807F108033249184601F00A
:1010A00067FB07F1080319462B4801F081FB2A234F
:1010B000BB803B1D1946284801F07AFB1F4B1B885B
:1010C0001A4613461B029B1A1A46274BA3FB021310
:1010D000D21A52081344DB0A87F8273097F82730D2
:1010E000FB70FB1C05220121184600F0D5FD97F886
:1010F00027203B461B49184601F03AFB3B46194660
:10110000154801F055FB144801F02AFB00F0E8F8FF
:101110004FF47A7000F01EFC00F004FB00F016FAA9
:10112000074800F039FA0C220B49054800F062FA32
:1011300000F024FA56E700BF40190100F801002032
:10114000007C0008FE010020040200200000204175
:1011500000808843384D0008000000200002002075
:10116000FF010020404D00080101100080B500AFD4
:10117000094B1B6803F00203002B0BD00B20FFF779
:10118000E1FE054B5B68044A43F001035360034BE7
:1011900001221A7000BF80BD00000240FE01002045
:1011A00080B500AF094B1B6803F00103002B08D08A
:1011B000064B1B68054A23F001031360044B012210
:1011C0001A701220FFF7BEFE00BF80BD0024014050
:1011D000FF01002080B584B000AF78607B68DBB28F
:1011E0003B7307F10C0364220121184600F0B4FCA4
:1011F0007B6818461037BD4680BD80B586B000AF0D
:10120000F860B9607A6000237B6109E0BB685A1C12
:10121000BA601B781846FFF7DDFF7B6901337B61FD
:101220007A697B689A42F1DB7B6818461837BD46BD
:1012300080BD80B400AF00BFBD4680BC70470000D9
:1012400080B483B000AF0346FB7197F90730002BE1
:101250000BDBFB7903F01F02064997F907305B09A6
:10126000012000FA02F241F8232000BF0C37BD46EE
:1012700080BC704700E100E080B400AF164B9B6972
:10128000154A43F004039361144B1B68134A23F07F
:1012900030031360114B1B68104A23F0C003136026
:1012A0000E4B1B680D4A23F4407313600B4B1B68F5
:1012B0000A4A23F440631360084B1B68074A23F46F
:1012C00040531360054B1B68044A23F440431360EA
:1012D00000BFBD4680BC70470010024000080140BE
:1012E00080B400AF094B00221A60084B9B68074A84
:1012F00043F480039360054B9B68044A43F0010369
:10130000936000BFBD4680BC704700BF0024014011
:1013100080B483B000AF3C4B9B693B4A43F40073FD
:1013200093613A4B9B68394A23F400639360374BCF
:101330001B69364A23F038031361344B1B69334A67
:1013400043F018031361314B1B69304A23F4E073F7
:1013500013612E4B1B692D4A43F0C00313612B4BC5
:101360001B692A4A23F460631361284B1B69274ACF
:1013700043F4C0631361254B9B68244A43F4602304
:101380009360224B01225A63204B5B6B1F4A43F050
:10139000400353631D4B5B6B1C4A43F44063536330
:1013A0001A4BDB6A194A23F47003D362174BDB6ACA
:1013B000164A43F40013D362144B5B68134A43F498
:1013C00080735360114B9B68104A43F480739360A1
:1013D0000E4B9B680D4A23F0020393600B4B9B68F6
:1013E0000A4A43F0010393600023FB8002E0FB887C
:1013F0000133FB80FB88232BF9D900BF00BF0C37DA
:10140000BD4680BC704700BF001002400024014070
:1014100080B582B000AF78602A4B5B69294A43F0FF
:1014200001035361284B0F225A60284B284A9A60C7
:10143000264A7B68D360254B03225A60234B1B68E6
:10144000224A43F020031360204B1B681F4A43F0DD
:10145000800313601D4B1B681C4A23F0400313607C
:101460001A4B1B68194A23F440731360174B1B680F
:10147000164A43F440731360144B1B68134A23F459
:1014800040631360114B1B68104A43F48063136080
:101490000E4B1B680D4A23F0100313600B4B1B68A7
:1014A0000A4A43F001031360084B1B68074A43F0E4
:1014B000020313600B20FFF7C3FE00BF0837BD46D1
:1014C00080BD00BF00100240000002400800024042
:1014D0004C24014080B582B000AF0346FB710B463F
:1014E000BB8013467B80184ABB889362164A7B8870
:1014F0005362154B5B68144A23F01F035360124B71
:101500005A68FB79104913434B600F4B5B680E4AD6
:1015100043F0400353600C4B5B680B4A43F4007389
:101520005360094B5B68084A23F480035360064B01
:101530005B68054A43F4000353601220FFF780FE06
:1015400000BF0837BD4680BD0024014080B400AF15
:10155000074B1B6903F08003002B05D0044B054AA1
:101560005A60034B044A5A6000BFBD4680BC7047B6
:101570000020024023016745AB89EFCD80B400AF66
:10158000044B1B69034A43F08003136100BFBD464F
:1015900080BC70470020024080B483B000AF786008
:1015A00000BF134BDB6803F00103002BF9D1104B94
:1015B0001B690F4A43F0020313610D4A7B685361B4
:1015C0000B4B1B690A4A43F04003136100BF084BF1
:1015D000DB6803F00103002BF9D1054B1B69044ABA
:1015E00023F00203136100BF0C37BD4680BC704777
:1015F0000020024080B487B000AFF860B9607A6024
:10160000FB687B6100233B6112E0144B1B69134AAA
:1016100043F0010313613B695B00BA681A447B69BC
:1016200012881A807B6902337B613B6901333B611D
:101630003A697B689A42E8D300BF084BDB6803F045
:101640000103002BF9D1054B1B69044A23F0010368
:10165000136100BF1C37BD4680BC704700200240AC
:1016600080B487B000AFF860B9607A60FB687B61D6
:1016700000233B610DE07A693B695B00B9680B446C
:10168000128892B21A807B6902337B613B69013315
:101690003B613A697B689A42EDD300BF00BF1C37BB
:1016A000BD4680BC7047000080B400AF0D4B9B6905
:1016B0000C4A43F0100393610B4B5B680A4A23F416
:1016C00040035360084B5B68074A23F440135360A0
:1016D000054B5B68044A43F40013536000BFBD46EA
:1016E00080BC7047001002400010014080B483B0FD
:1016F00000AF0346FB71FB79002B06D0084BDB687B
:10170000074A43F40053D36005E0054BDB68044A05
:1017100023F40053D36000BF0C37BD4680BC704734
:101720000010014080B400AF044BDB68034A83F42F
:101730000053D36000BFBD4680BC7047001001401D
:1017400080B483B000AF0346FB7197F90730002BDC
:101750000CDBFB7903F01F02074997F907305B099F
:10176000012000FA02F2603341F8232000BF0C3759
:10177000BD4680BC704700BF00E100E080B483B08C
:1017800000AF03463960FB7197F90730002B0ADB85
:101790003B68DAB20C4997F907301201D2B20B4418
:1017A00083F800230AE03B68DAB20849FB7903F0CA
:1017B0000F03043B1201D2B20B441A7600BF0C3760
:1017C000BD4680BC704700BF00E100E000ED00E0D6
:1017D00080B400AF3F4B5B683E4A23F47013536004
:1017E0003C4B5B683B4A43F4E0135360394B5B6806
:1017F000384A23F480035360364B1B68354A43F460
:101800008033136000BF334B1B6803F40033002B9D
:10181000F9D0304B5B682F4A43F4803353602D4B33
:101820001B682C4A43F08073136000BF294B1B6870
:1018300003F00073002BF9D0274B1B68264A23F0D6
:1018400007031360244B1B68234A43F00203136011
:10185000214B1B68204A43F0100313601D4B5B684B
:101860001C4A23F0030353601A4B5B68194A43F088
:101870000203536000BF174B5B6803F00803002BA3
:10188000F9D0144B5B68134A23F0F0035360114BFB
:101890005B68104A23F4E06353600E4B5B680D4AAB
:1018A00043F4806353600B4B5B680A4A23F4605334
:1018B0005360084B5B68074A23F440435360054B71
:1018C0005B68044A43F40043536000BFBD4680BCDC
:1018D000704700BF001002400020024080B582B077
:1018E00000AF7860124B00221A60114A7B68013BFE
:1018F000536000214FF0FF30FFF740FF0C4B0022F8
:101900009A600B4B1B680A4A43F004031360084BB0
:101910001B68074A43F002031360054B1B68044A27
:1019200043F00103136000BF0837BD4680BD00BF10
:1019300010E000E080B500AF4FF0FF30FFF700FF90
:10194000034B1B680133024A136000BF80BD00BF18
:101950000802002080B584B000AF786000F010F875
:10196000F86000BF00F00CF80246FB68D31A7A68F2
:101970009A42F7D800BF00BF1037BD4680BD0000B7
:1019800080B400AF024B1B681846BD4680BC704750
:101990000802002080B400AF3D4B9B693C4A43F0F5
:1019A000040393613B4B5B683A4A23F0C0035360E6
:1019B000384B5B68374A43F080035360354B5B68B4
:1019C000344A23F440635360324B5B68314A43F43A
:1019D000806353602F4B5B682E4A23F030035360C3
:1019E0002C4B5B682B4A43F010035360294B5B6818
:1019F000284A23F440735360254B9B69244A43F0E3
:101A000001039361244B5B68234A23F00403536072
:101A10001F4B9B691E4A43F0080393611F4B5B6891
:101A20001E4A23F4406353601C4B5B681B4A43F41B
:101A300000635360194B5B68184A23F440435360BA
:101A4000164B5B68154A43F480435360134B5B6845
:101A5000124A23F440735360104B5B680F4A43F4FF
:101A6000807353600D4B5B680C4A23F44053536002
:101A7000074B9B69064A43F001039361064B5B6881
:101A8000054A23F03003536000BFBD4680BC704759
:101A9000001002400008014000000140000C01401D
:101AA00080B400AF2A4B9B69294A43F48043936179
:101AB000284BDB68274A43F00803D360254BDB68DB
:101AC000244A23F40073D360224BDB68214A23F4B9
:101AD0008063D3601F4BDB681E4A23F48053D360BE
:101AE0001C4B1B691B4A23F440531361194B5B6960
:101AF000184A23F400735361164B5B69154A23F4AB
:101B000080735361134B00229A60124B9B68114AF9
:101B100043F41C7393600F4B9B680E4A43F0010320
:101B200093600C4B1B690B4A23F490431361094BE0
:101B30005B69084A23F02A035361064BDB68054AB8
:101B400043F40053D36000BFBD4680BC704700BF64
:101B5000001002400038014080B586B000AFF86048
:101B60000B467A60FB720023FB75FFF709FF3861B3
:101B700019E01A4B1B6803F08003002B09D0FB7D92
:101B8000FA6813441A78154B5A60FB7D0133FB75D4
:101B900009E0FFF7F5FE02463B69D31A7A689A42DC
:101BA00001D8002315E0FA7DFB7A9A42E1D309E0DF
:101BB000FFF7E6FE02463B69D31A7A689A4201D8DB
:101BC000002306E0054B1B6803F04003002BEFD118
:101BD000012318461837BD4680BD00BF00380140BC
:101BE00080B400AF2A4BDB69294A43F48023D361D8
:101BF000284BDB68274A43F00803D360254BDB689A
:101C0000244A23F40073D360224BDB68214A23F477
:101C10008063D3601F4BDB681E4A23F48053D3607C
:101C20001C4B1B691B4A23F440531361194B5B691E
:101C3000184A23F400735361164B5B69154A23F469
:101C400080735361134B00229A60124B9B68114AB8
:101C500043F46A6393600F4B9B680E4A43F006039C
:101C600093600C4B1B690B4A23F490431361094B9F
:101C70005B69084A23F02A035361064BDB68054A77
:101C800043F40053D36000BFBD4680BC704700BF23
:101C9000001002400048004080B586B000AFF860F8
:101CA0000B467A60FB720023FB75FFF769FE386113
:101CB00019E01A4B1B6803F08003002B09D0FB7D51
:101CC000FA6813441A78154B5A60FB7D0133FB7593
:101CD00009E0FFF755FE02463B69D31A7A689A423B
:101CE00001D8002315E0FA7DFB7A9A42E1D309E09E
:101CF000FFF746FE02463B69D31A7A689A4201D83A
:101D0000002306E0054B1B6803F04003002BEFD1D6
:101D1000012318461837BD4680BD00BF004800406B
:101D20000C480D490D4A002302E0D458C450043336
:101D3000C4188C42F9D30A4A0A4C002301E013600C
:101D40000432A242FBD3FFF774FA00F00FF8FFF75A
:101D500017F9704700000020DC0100202451000822
:101D6000DC01002020020020FEE7000070B5002604
:101D70000C4D0D4C641BA410A64209D102F0CEFFFD
:101D800000260A4D0A4C641BA410A64205D170BD62
:101D900055F8043B98470136EEE755F8043B984761
:101DA0000136F2E71C5100081C5100081C510008C4
:101DB0002051000803460244934200D1704703F8C3
:101DC000011BF9E7002B2DE9F0471F46BBBF03F1CC
:101DD00000431F4600232D2388B01446129A109DFD
:101DE0001370149BDDF84CA023F02008B8F1460FC7
:101DF00005D0B8F1450F00D10135022300E00323DF
:101E000007AA049206AACDE902A2CDE9003522462E
:101E10003B4600F031FEB8F1470F064602D1119B58
:101E2000DB0722D5B8F1460F06EB050910D1337850
:101E3000302B0AD10022002320463946FEF7B4FD9C
:101E400018B9C5F10105CAF80050DAF80030994414
:101E50000022002320463946FEF7A6FD08B1CDF842
:101E60001C903022079B4B4507D33046079B159AA1
:101E70009B1B136008B0BDE8F087591C07911A70CE
:101E8000F0E70346F7B5002903F8022BB6BF2D2271
:101E90002B224942092942702BDD0DF10704A4468B
:101EA0000A2791FBF7F60A46A64607FB1615632A92
:101EB00005F13005314604F1FF340EF8015CF0DC29
:101EC0003031AEF1020504F8011C2946441C61457D
:101ED0000AD30DF10902A2EB0E02654588BF00226C
:101EE0001344181A03B0F0BD11F8012B04F8012FA8
:101EF000EDE7302330318370C170031DF1E700003E
:101F00002DE9F04F91B00C46DDF8688016461F466B
:101F1000054601F053FD036818460993FEF718F9CA
:101F200000230E93D8F800300A90073323F00703FC
:101F300003F1080294F81890D4F800B0C8F8002013
:101F4000D3E90023C4E91223D4E9128A2AF000431A
:101F50000B934FF0FF3240469C4B0B99FEF756FD1A
:101F600070BB4FF0FF324046984B0B99FEF730FDA7
:101F700030BB0022002340465146FEF71FFD10B142
:101F80002D2384F84330924B9248B9F1470F94BF08
:101F90009846804603234FF0000A23612BF0040388
:101FA000236033462146284600970FAA00F0D4F953
:101FB000013040F090804FF0FF3011B0BDE8F08F5D
:101FC0004246534640465146FEF720FD48B1BAF11D
:101FD000000FB8BF2D238048B8BF84F843307F4B33
:101FE000D3E7636809F0DF015A1C42D1062363601E
:101FF000002206920EAACDE904920DAA4BF480634A
:1020000003920DF13302CDE9013223606368424649
:102010000093284653460B91FFF7D4FE0B99804658
:1020200047290D9908D1C81C02DB6368994240DD3D
:10203000A9F102095FFA89F9B9F1650F1FD84A467B
:10204000013904F150000D91FFF71BFF0E9A8246F3
:102050001318012A236102DC2268D20701D501335B
:1020600023619DF83330002B9BD02D2384F843301F
:1020700097E74729BCD1002BBAD10123B7E7B9F1C3
:10208000660F18D1002963680BDD216113B922683E
:10209000D00702D501330B4423614FF0000AA1653C
:1020A000DFE713B92268D20701D50233F4E7012331
:1020B000F2E74FF067090E9B994205DB2368216127
:1020C000D807EAD54B1CE7E70029CCBF0122C1F1B4
:1020D00002021344E0E723685A0507D42369424605
:1020E00031462846B84701302BD164E7B9F1650F76
:1020F00040F2DD80D4E9120100220023FEF754FCF7
:10210000002833D0012331462846354AB8470130EC
:102110003FF451AFDDE90D239A4202DB2368D80773
:102120000FD5DDE9092331462846B84701303FF491
:1021300042AF4FF0000804F11A090E9B013B4345E2
:1021400009DC23689B0700F10281E0680F9B98423D
:10215000B8BF184631E701234A4631462846B847FA
:1021600001303FF428AF08F10108E6E70D9B002B92
:1021700038DC012331462846194AB84701303FF47C
:102180001AAFDDE90D23134302D12368D907D8D54F
:10219000DDE9092331462846B84701303FF40BAF4B
:1021A0004FF0000904F11A0A0D9B5B424B4501DC1C
:1021B0000E9B94E70123524631462846B84701302A
:1021C0003FF4F9AE09F10109EEE700BFFFFFEF7F31
:1021D000484D00084C4D0008544D0008504D000873
:1021E000584D00080E9AA36D9A42A8BF1A46002ABD
:1021F000914637DC4FF0000B29EAE97904F11A0225
:10220000D4F858A0AAEB09035B4533DCDDE90D23C4
:102210009A423BDB2368DA0738D40E9B0D99A3EB77
:102220000A02A3EB01099145A8BF9146B9F1000F3D
:1022300034DC4FF0000829EAE97904F11A0ADDE9F3
:102240000D239B1AA3EB090343457FF77AAF0123C4
:10225000524631462846B84701303FF4ACAE08F14B
:102260000108ECE71346314642462846B84701309C
:10227000C0D1A0E60123314628460B92B847013071
:102280003FF499AE0B9A0BF1010BB9E73146DDE94A
:1022900009232846B8470130BFD18CE64B4631466A
:1022A000284608EB0A02B8470130C2D183E60E9AED
:1022B000012A01DCDB0737D5012342463146284697
:1022C000B84701303FF477AEDDE9092331462846AF
:1022D000B84701303FF46FAED4E912010022002369
:1022E000FEF762FBD8B90E9B08F10102013B3146B3
:1022F0002846B84701300ED15DE601234A463146F3
:102300002846B84701303FF456AE08F101080E9B4D
:10231000013B4345F1DC534604F15002E0E64FF047
:10232000000804F11A09F2E701234246DFE701231E
:102330004A4631462846B84701303FF43CAE08F1E2
:102340000108E3680F995B1A4345F0DCFDE64FF0A6
:10235000000804F11909F4E72DE9F04716469946FB
:102360008A680B6907469342B8BF1346336091F8F9
:1023700043200C46DDF820800AB101333360236826
:10238000990642BF336802333360256815F00605AD
:1023900006D104F1190AE36832689B1AAB4228DCC3
:1023A00094F84320131E226818BF012392062DD4EF
:1023B0004946384604F14302C047013020D0236823
:1023C000E56803F00603042B18BF002532684FF0C0
:1023D0000006A36808BFAD1A226908BF25EAE575A3
:1023E0009342C4BF9B1AED181A34B5421AD100208B
:1023F00008E00123524649463846C047013003D120
:102400004FF0FF30BDE8F0870135C4E73020E11818
:1024100081F843005A1C94F845102244023382F894
:102420004310C5E70123224649463846C0470130DC
:10243000E6D00136D9E700002DE9FF470F7E91462F
:10244000782F80460C469A460C9D01F1430207D82E
:10245000622F0AD8002F00F0D980582F00F0A480F6
:1024600004F1420584F842703AE0A7F16303152BAA
:10247000F6D801A151F823F0D1240008E524000882
:102480006124000861240008612400086124000818
:10249000E524000861240008612400086124000884
:1024A00061240008F325000815250008D52500083B
:1024B0006124000861240008152600086124000832
:1024C000152500086124000861240008DD250008A6
:1024D0002B681A1D1B682A6004F1420584F84230FB
:1024E0000123A4E020682968060601F104030AD547
:1024F0000E682B60002E03DA2D23764284F84330D9
:102500000A235E4819E00E6810F0400F2B6018BFD8
:1025100036B2EFE72B682068191D2960010601D546
:102520001E6802E04606FBD51E886F2F0CBF0823ED
:102530000A235248002184F843106568002DA8BF83
:102540002168A560A4BF21F0040121600EB9002D0F
:102550004DD01546B6FBF3F103FB1167C75D05F8D7
:10256000017D3746BB420E46F4D9082B0BD12368B8
:10257000DE0708D5236961689942DEBF302305F87C
:10258000013C05F1FF35521B22614B462146404676
:10259000CDF800A003AAFFF7DFFE01304CD14FF0C9
:1025A000FF3004B0BDE8F087344881F845702968F1
:1025B000236851F8046B29601D0614D5DF0744BF5A
:1025C00043F0200323601EB9236823F02003236017
:1025D0001023AFE7236843F02003236078232848C3
:1025E00084F84530E3E7590648BFB6B2E6E715463A
:1025F000BBE72B682668181D6169286035061B68D3
:1026000001D5196002E07006FBD51980002315463C
:102610002361BAE72B6800211A1D2A601D686268D1
:10262000284601F03FFA08B1401B606063682361EF
:10263000002384F84330A8E72A46494640462369E8
:10264000D0470130ABD023689B0713D4E068039BCD
:102650009842B8BF1846A4E701233246494640468F
:10266000D04701309BD00135E36803995B1AAB4238
:10267000F2DCEBE7002504F11906F5E75A4D0008F6
:102680006B4D000870B50E46054618B183690BB94D
:1026900001F0F6F8AB69AC6813B9284601F0F0F820
:1026A0002C4B9C4220D16C68636EDB0705D4A38958
:1026B000980502D4A06D01F086F9A38919071DD5EC
:1026C0002369DBB1013EA36816F8011F013BA3603B
:1026D00039BB002B38DA22460A21284600F080F860
:1026E000013011D00A2511E01B4B9C4201D1AC688E
:1026F000DAE71A4B9C4208BFEC68D5E7214628462A
:1027000000F0C0F80028DDD04FF0FF35636EDA0727
:1027100005D4A3899B0502D4A06D01F055F9284684
:1027200070BD002B04DAA2699A4206DC0A2904D0A3
:1027300023685A1C22601970C5E72246284600F01B
:102740004FF80130BFD1DFE70A2523685A1C226009
:102750001D70DBE72C4E00084C4E00080C4E0008A4
:10276000024B01461868FFF78DBF00BF0C00002028
:102770000EB46FF0004100B59CB01DAB0290069006
:10278000079104910848094953F8042B0591006802
:1027900002A9019301F070FE0022029B1A701CB086
:1027A0005DF804EB03B070470C0000200802FFFF47
:1027B000024610B5147813460132002CFAD1013BC1
:1027C00011F8012B03F8012F002AF9D110BD03469F
:1027D00011F8012B03F8012B002AF9D170470000F2
:1027E000F8B50E461446054618B183690BB901F0D9
:1027F00047F8214B9C422BD16C68A369A360A38945
:102800001A072FD523696BB323692068F6B2C01A63
:1028100063693746834204DC2146284600F09CFF6A
:1028200030BBA3680130013BA36023685A1C2260BF
:102830001E706369834204D0A389DB0706D50A2E84
:1028400004D12146284600F087FF88B93846F8BDF4
:102850000A4B9C4201D1AC68CFE7094B9C4208BFB0
:10286000EC68CAE72146284600F00CF80028CBD0D7
:102870004FF0FF37EAE700BF2C4E00084C4E00082F
:102880000C4E0008324B70B51D6806460C4625B14B
:10289000AB6913B9284600F0F3FF2E4B9C420FD1D1
:1028A0006C68A389B4F90C2019072CD4DD0611D467
:1028B0000923336042F040034FF0FF30A3813EE034
:1028C000254B9C4201D1AC68EBE7244B9C4208BFEE
:1028D000EC68E6E7580712D5616B41B104F1440397
:1028E000994202D0304601F08FFC00236363A38934
:1028F00023F02403A3810023636023692360A38959
:1029000043F00803A38123694BB9A38903F420731F
:10291000B3F5007F03D02146304601F07BF8A08953
:10292000B4F90C2010F001030AD00023A3606369FE
:102930005B42A361236943B910F08000BAD170BD36
:10294000810758BF6369A360F4E70020F7E700BF81
:102950000C0000202C4E00084C4E00080C4E0008C5
:102960002DE9F74F03690C690746A342C0F2828044
:10297000013C00F1140501F1140805EB84030193F7
:1029800058F8243055F8242001339A42B2FBF3F66C
:102990004FEA840B08EB840931D34FF0000E404618
:1029A000AC46F24650F8042B93B206FB03E3120C3C
:1029B0004FEA134E9BB206FB02E2AAEB0303DCF8DC
:1029C00000A04FEA124E1FFA8AFA5344DCF800A026
:1029D00092B2C2EB1A4202EB23429BB243EA024399
:1029E00081454FEA224A4CF8043BDBD255F80B30C4
:1029F0002BB9019B043B9D421A462FD33C613846BC
:102A000001F0EAFA002825DB28464FF0000C0136D9
:102A100058F8041BD0F800E08BB2ACEB03031FFAAC
:102A20008EF213440A0CC2EB1E4202EB23429BB20D
:102A300043EA0243C1454FEA224C40F8043BE7D247
:102A400055F8242005EB840322B9043B9D421A4625
:102A50000AD33C61304603B0BDE8F08F1268043BF6
:102A6000002ACBD1013CC6E71268043B002AF0D112
:102A7000013CEBE70020EEE72DE9F04F16461F463C
:102A8000446A99B00546CDE90467DDF8948074B9CD
:102A9000102000F0FFFF0246686220B9EA21A84B2F
:102AA000A84801F04FFEC0E901440460C4606B6AAD
:102AB000196851B15A68012393404A608B602846D7
:102AC00001F04CF800226B6A1A603B1EAFBF002376
:102AD000012223F000430593A8BFC8F80030DDF8B9
:102AE0001490994BB8BFC8F8002033EA090319D1F4
:102AF00042F20F73249A1360C9F31303334300F0B7
:102B00007F85269B53B9914B22E0914B0393083369
:102B1000269A1360039819B0BDE8F08F8B4B03938E
:102B20000333F5E7DDE90434CDE90C34DDE90C01CC
:102B300000220023FDF738FF804658B10123249A74
:102B40001360269B002B00F0588582481860431EB6
:102B50000393DFE716AB019317AB00932846DDE93B
:102B60000C2301F0E1FAC9F30A548346002C7FD00C
:102B7000DDE90C010D9BA4F2FF34C3F3130343F012
:102B80007F5141F44011CDF84C800022724BFDF78B
:102B9000EBFA65A3D3E90023FDF79EFC64A3D3E918
:102BA0000023FDF7E3FA064620460F46FDF72AFC10
:102BB00061A3D3E90023FDF78FFC02460B463046A4
:102BC0003946FDF7D3FA06460F46FDF735FF0022DA
:102BD0008246002330463946FDF7F0FE48B15046A4
:102BE000FDF710FC32463B46FDF7DEFE08B90AF160
:102BF000FF3ABAF1160F58D8DDE90C01574B03EB39
:102C0000CA03D3E90023FDF7D9FE00284FD00023E3
:102C10000AF1FF3A0F93169B1C1B631E099349BFD1
:102C2000C4F1010300230693002354BF06930993C4
:102C3000BAF1000F3DDB099BCDF838A0534409934E
:102C400000230A93229B092B00F28C80052BC4BF22
:102C5000043B2293229BC8BF0024A3F10203D8BFE8
:102C60000124032B00F28A80DFE803F02D4F4D5B37
:102C7000DDE916431C4404F23243202BC3BFC3F1E9
:102C8000400304F2124009FA03F3C3F12003C6BF64
:102C900026FA00F0184306FA03F0FDF7A3FB012320
:102CA000A1F1F871013C13936FE70123B2E70F9094
:102CB000B1E7069BA3EB0A030693CAF100030A934C
:102CC00000230E93BEE700230B93239B002B58DCBD
:102CD0004FF001094B46CDF82090CDF88C900022A2
:102CE000686A4260042202F114069E4241684ED98D
:102CF000284600F0F3FE039000284CD102464FF422
:102D0000D571174BCCE60123DEE700230B93239B01
:102D10000AEB030909F10103012B0893B8BF012352
:102D2000DDE70123F2E700BF61436F63A787D23F6E
:102D3000B3C8608B288AC63FFB799F501344D33FAA
:102D4000894D0008A04D00080000F07F854D000867
:102D50007C4D0008594D00080000F83FF04E000877
:102D6000FB4D0008012400230B9422934FF0FF3900
:102D700000221223CDF820902392B0E701230B9379
:102D8000F4E7DDF88C904B46CDF82090A7E70131B1
:102D900041605200A7E76B6A039A1A60089B0E2BEA
:102DA00000F2A880002C00F0A580BAF1000F34DDFD
:102DB0009A4A0AF00F0302EBC3031AF4807FD3E9A7
:102DC0000034CDE910344FEA2A1416D0DDE90C01A5
:102DD000934B0327D3E90823FDF7A8FCCDE90401B1
:102DE00004F00F048E4E54B9DDE91023DDE904012F
:102DF000FDF79CFCCDE9040129E00227F2E7E10799
:102E000008D5DDE91001D6E90023FDF765FBCDE922
:102E10001001013764100836E5E700F0A580DDE910
:102E20000C01CAF100047D4B04F00F0203EBC20356
:102E3000D3E90023FDF750FB02270023CDE904016D
:102E4000774E2411002C40F08480002BD2D10F9BB0
:102E5000002B00F08B80DDE90434CDE91034DDE98E
:102E6000100100226F4BFDF7A9FD00287ED0089BC2
:102E7000002B7BD0B9F1000F38DDDDE91001002215
:102E8000694BFDF729FB4C46CDE904010AF1FF38F7
:102E900001373846FDF7B6FADDE90423FDF71CFBE0
:102EA0000022624BFDF762F9A1F15076CDE91001E5
:102EB0001196002C5DD1DDE9040100225C4BFDF789
:102EC00053F902460B46CDE904233346109AFDF729
:102ED00093FD002840F09C82DDE90401109A06F180
:102EE0000043FDF76BFD002840F09082DDE90C34D3
:102EF000CDE90434179B002BC0F25281BAF10E0FBA
:102F000000F34E81454B03EBCA03D3E90034CDE90E
:102F10000634239B002B80F2DB80089B002B00F300
:102F2000D78040F07282DDE906010022404BFDF7B8
:102F3000D3FADDE90423FDF755FD089C2646002859
:102F400040F048823123039F0AF1010A07F8013B50
:102F500044E2E20705D5D6E90023FDF7BDFA0123D7
:102F60000137641008366DE7022770E7D046089CE9
:102F70008FE70399294B214412910B9903EBC4036A
:102F8000DDE9106753E90223002955D000202949C3
:102F9000FDF7CCFB3B463246FDF7E6F8CDE91001E4
:102FA000039FDDE90401FDF747FD0446FDF72AFA1A
:102FB00002460B46DDE90401FDF7D6F802460B4652
:102FC0003034CDE90423DDE9102307F8014BFDF788
:102FD000F5FC002874D1DDE9042300201149FDF738
:102FE000C3F8DDE91023FDF7E9FC002840F0B780C5
:102FF000129B9F423FF47AAFDDE9100100220A4B99
:10300000FDF76AFA0022CDE91001DDE90401064B63
:10301000FDF762FACDE90401C3E700BFF04E0008F6
:10302000C84E00080000F03F0000244000001C4093
:10303000000014400000E03F30463946FDF74CFAEE
:10304000129BCDE91001039C1493DDE90401FDF707
:10305000F3FC1590FDF7D6F902460B46DDE90401B5
:10306000FDF782F8159B0646303304F8013B129BAE
:103070000F469C424FF0000224D1DDE91001B04B15
:10308000FDF774F802460B4630463946FDF7B4FCAE
:10309000002863D1DDE910230020A949FDF764F879
:1030A00002460B4630463946FDF788FC00283FF4BF
:1030B0001DAF149F7B1E149317F8013C302BF8D0E2
:1030C000C2463BE09F4BFDF707FACDE90401BCE7A0
:1030D000039FDDE90489DDE9062340464946FDF703
:1030E00025FBFDF7A9FC0446FDF78CF9DDE9062375
:1030F000FDF7F2F902460B4640464946FDF734F823
:1031000004F1300607F8016B039EDDF820C0BE1BFA
:10311000B44502460B4636D1FDF728F8DDE9062313
:1031200080468946FDF768FC58BBDDE9062340462A
:103130004946FDF739FC08B1E10722D42846594633
:1031400000F00CFD00233B70249B0AF10100186085
:10315000269B002B3FF4DEAC1F60DBE427463B469A
:103160001F4613F8012D392A07D1039A9A42F7D145
:103170003022039908F101080A701A7801321A7096
:103180009EE7D046EBE700226E4BFDF7A5F9002243
:10319000002380468946FDF707FC00289BD0CDE739
:1031A0000B9A002A00F0D080229A012A00F3AE8008
:1031B000139A002A00F0A68003F233430A9C069F6C
:1031C000069A01211A440692099A28461A4409923D
:1031D00000F07AFD0646002F0CDD099B002B09DD6F
:1031E000BB42A8BF3B46069AFF1AD21A0692099A1A
:1031F000D31A09930A9BF3B10B9B002B00F0A88014
:10320000002C10DD31462246284600F01BFE5A46AF
:1032100001460646284600F06DFD80465946284680
:1032200000F09CFCC3460A9B1A1B04D05946284652
:1032300000F008FE83460121284600F045FD0E9B64
:103240000446002B40F386801A460146284600F0CB
:10325000F9FD229B0446012B7FDD4FF00008236916
:1032600004EB8303186900F0E1FCC0F12000099B26
:10327000184410F01F0000F09280C0F12003042BCE
:1032800040F38A80C0F11C00069B07440344069368
:10329000099B03440993069B002B05DD59461A46FA
:1032A000284600F029FE8346099B002B05DD2146B8
:1032B0001A46284600F020FE04460F9B002B70D0D3
:1032C0002146584600F088FE00286ADA0023594655
:1032D0000A22284600F064FC0B9B83460AF1FF3A61
:1032E000002B00F09481314600230A22284600F08A
:1032F00057FCB9F1000F064600F39380229B022B86
:1033000057DC8EE0169BC3F1360357E7089B5C1E23
:103310000A9BA342B7BF0A9B1C1BE21A0E9BBEBFAF
:103320000A949B180E93089BB8BF0024002BBBBFC8
:10333000069B089A069F9F1AACBF089B00233FE795
:103340000000E03F000024400A9C069F0B9E42E7DD
:103350000A9A6BE7229B012B19DC049BBBB9059BE6
:10336000C3F313039BB9059B23F000431B0D1B05FF
:1033700083B14FF00108069B01330693099B01338B
:1033800009930E9B002B7FF46AAF01206FE74FF08B
:103390000008F6E79846F4E73FF47DAF18461C3086
:1033A00072E7089B002B36DC229B022B33DDDDF815
:1033B0002090B9F1000F0DD121464B460522284639
:1033C00000F0EEFB01460446584600F005FE0028DA
:1033D0003FF7B8AD239B039F6FEA030A4FF0000845
:1033E0002146284600F0BAFB002E3FF4A7AEB8F104
:1033F000000F05D0B04503D04146284600F0AEFB93
:103400003146284600F0AAFB98E600242646E1E76C
:10341000C246264696E50B9BDDF82090002B00F077
:10342000FD80002F05DD31463A46284600F064FD58
:103430000646B8F1000F5CD02846716800F04EFBDC
:10344000074628B9024640F2EA217F4BFFF728BB26
:10345000326906F10C01023292000C3000F030FBB0
:1034600001223946284600F047FDB0460646039B38
:1034700001330893039B4B440A93049B03F001031D
:103480000993089B2146013B58460493FFF768FACD
:10349000034641463033069058460B9300F09CFD9E
:1034A000324681462146284600F0B2FDC2680746F2
:1034B0000B9B02BB0146584600F08EFD02460B9B5B
:1034C00039462846CDE90B3200F048FB229B0C9A86
:1034D000089F43EA0201099B0B430B9B0DD1392B3B
:1034E00029D0B9F1000F01DD069B3133049A137026
:1034F00076E73046B9E70122E2E7B9F1000F06DBD3
:10350000229941EA0909099959EA010120D1002AC1
:10351000ECDD594601222846089300F0EDFC2146D7
:10352000834600F059FD0028089B02DCDED1DA0753
:10353000DCD5392BD8D13923049A13703B461F466A
:1035400017F8012C013B392A50D001321A7047E795
:10355000002A03DD392BEED00133C7E7089A0A9918
:1035600002F8013C8A422AD0594600230A22284602
:1035700000F016FBB04583464FF000034FF00A02FF
:103580004146284607D100F00BFB80460646089BC3
:103590000133089375E700F003FB314680460023B2
:1035A0000A22284600F0FCFA0646F0E7B9F1000FBF
:1035B000CCBF4F4601274FF00008039A17445946E5
:1035C00001222846089300F097FC2146834600F02C
:1035D00003FD0028B2DC02D1089BDB07AED43B46DA
:1035E0001F4613F8012D302AFAD0F9E6039A9A42C1
:1035F000A5D131230AF1010A79E7144BFFF7A8BAE4
:10360000269B002B7FF481AA114BFFF7A1BAB9F1D9
:10361000000F03DC229B022B3FF7CBAE039F21461A
:103620005846FFF79DF9039A00F1300307F8013B74
:10363000BA1A9145BADD594600230A22284600F0FD
:10364000AFFA8346EBE700BFFB4D0008584D00087A
:103650007C4D00088A89F8B5054610070C4657D4FA
:103660004B68002B04DC0B6C002B01DC0020F8BD48
:10367000E66A002EFAD0002312F480522F682B60E5
:1036800032D0606DA3895A0705D56368C01A636B91
:103690000BB1236CC01A00230246E66A2846216A51
:1036A000B047431CA38906D129681D292CD8294A73
:1036B000CA40D60728D5002262602269D904226058
:1036C00004D5421C01D12B6803B96065616B2F6082
:1036D0000029CBD004F14403994202D0284600F0DF
:1036E00093FD00206063C2E7216A01232846B047AA
:1036F000411CC7D12B68002BC4D01D2B01D0162B29
:1037000001D12F60B2E7A38943F04003A381AEE764
:103710000F69002FAAD0930718BF00230E6808BFB7
:103720004B69F61B0F608B60002E9FDD33463A46D7
:103730002846216AD4F828C0E047002806DCA3897F
:103740004FF0FF3043F04003A38190E70744361A5F
:10375000EAE700BF0100402038B50B6905460C467A
:1037600013B90025284638BD18B183690BB900F09C
:1037700087F8144B9C421BD16C68B4F90C30002BB9
:10378000EFD0626ED00704D4990502D4A06D00F08A
:103790001AF928462146FFF75DFF636E0546DA07F2
:1037A000E0D4A3899B05DDD4A06D00F00DF9D9E725
:1037B000054B9C4201D1AC68DFE7044B9C4208BF3B
:1037C000EC68DAE72C4E00084C4E00080C4E00085E
:1037D000002310B50446C0E90033C0E90433836018
:1037E00081814366C2818361194608225C30FEF7FD
:1037F000E1FA054B24626362044BA362044BE3626B
:10380000044B236310BD00BF99460008BB46000867
:10381000F346000817470008014900F0AFB800BFA1
:1038200059370008682270B54D1E55430E4605F104
:10383000740100F051FD044640B10021C0E90016BA
:103840000C30A06005F16802FEF7B4FA204670BDA6
:10385000014800F0B8B800BF0D020020014800F098
:10386000B3B800BF0D020020014800F0ACB800BFA3
:103870000E020020014800F0A7B800BF0E02002091
:1038800010B50446FFF7F0FFA3691BB1BDE8104077
:10389000FFF7F0BFC4E912332365134B134A1B68CB
:1038A000A262A34208BF0123204608BFA36100F023
:1038B0001FF86060204600F01BF8A060204600F072
:1038C00017F800220421E0606068FFF781FF012201
:1038D0000921A068FFF77CFF02221221E068FFF7B0
:1038E00077FF0123A361D1E7444D00081938000890
:1038F000F8B50746FFF7ACFF1E4B1E68B36913B956
:103900003046FFF7BDFF4836D6E90134013B03D509
:1039100033680BB33668F7E7B4F90C50D5B9164BDA
:1039200004F15800E360656600F04CF8FFF796FF7D
:1039300008222946C4E90155C4E904552560A5615A
:1039400004F15C00FEF736FAC4E90D55C4E91255DE
:103950002046F8BD6834D9E704213846FFF762FFF6
:10396000044630600028D5D1FFF778FF0C233B6078
:10397000EEE700BF444D00080100FFFF2DE9F843CA
:1039800006468846002700F14804D4E90195B9F1BC
:10399000010905D52468002CF7D13846BDE8F88325
:1039A000AB89012B07D9B5F90E30013303D0294675
:1039B0003046C04707436835E9E7000000487047D4
:1039C0006001002070477047704770B50E46B1F92E
:1039D0000E10144600291D4696B008DA0022B6F9EA
:1039E0000C302A601A0610D44FF480630EE06A4649
:1039F00000F0E8FE0028F1DB019A02F47042A2F523
:103A000000535A425A412A60EEE7402300202360C7
:103A100016B070BD8B8973B59D0706460C4607D559
:103A200004F14703236023610123636102B070BD89
:103A30006A4601ABFFF7C9FF00990546304600F022
:103A40004BFC48B9B4F90C309A05EFD423F00303CA
:103A500043F00203A381E3E70D4BB362A389206027
:103A600043F08003A381009B20616361019B5BB1F4
:103A70003046B4F90E1000F0B7FE28B1A38923F048
:103A8000030343F00103A381A0890543A581CDE78A
:103A900019380008024B0146186800F01DBC00BF31
:103AA0000C000020034610B5C9B2024493421846E8
:103AB00001D1002003E0047801338C42F6D110BD1F
:103AC0000A44914200F1FF3300D1704710B511F85C
:103AD000014B914203F8014FF9D110BD70B5466A10
:103AE00004460D4676B91020FFF7D4FF0246606207
:103AF00020B96621174B184800F024FEC0E9016682
:103B00000660C660666AF36883B1636ADB6853F86F
:103B10002500B8B9012101FA05F6721D2046920070
:103B200000F05EFB60B1C0E901560EE021220421E5
:103B3000204600F055FB636AF060DB68002BE4D19F
:103B4000002070BD026843F825200023C0E903333C
:103B5000F7E700BF894D00086C4E000870B5466A53
:103B600005460C4676B91020FFF794FF02466862BE
:103B700020B98A21084B094800F0E4FDC0E901663C
:103B80000660C6603CB16B6A6268DB6853F822105D
:103B9000216043F8224070BD894D00086C4E00083A
:103BA0002DE9F04107460C461E4600200D6901F143
:103BB000140CDCF80030013099B202FB01611E0CDC
:103BC0000B0C02FB063389B201EB034185424FEA3D
:103BD00013464CF8041BECDC0EB3A368AB4219DCB3
:103BE000616838460131FFF779FF804628B90246FF
:103BF000B5210C4B0C4800F0A5FD226904F10C0125
:103C0000023292000C30FFF75BFF21463846FFF787
:103C1000A5FF444604EB850301355E61256120461E
:103C2000BDE8F081FB4D00086C4E0008020C120448
:103C30000346CAB90304102013F07F4F04BF1B02D0
:103C4000083013F0704F04BF1B01043013F0404FD5
:103C500004BF9B000230002B05DB13F0804F00F106
:103C6000010008BF202070470020E5E703680246F6
:103C700013F007000BD0D90721D4980749BF5B0880
:103C80009B08012013605CBF02201360704799B24B
:103C900009B910201B0CD9B209B908301B0A190741
:103CA00004BF1B090430990704BF9B080230D907E1
:103CB00003D45B0800F1010003D0136070470020BB
:103CC000704720207047000010B50C460121FFF717
:103CD00005FF024628B94FF4A071044B044800F0D8
:103CE00031FD01234461036110BD00BFFB4D00089D
:103CF0006C4E00082DE9F04F91460A69D9F8103052
:103D00000C469A42BEBF0B464C4699462769D9F8E5
:103D100010A0A368616807EB0A06B34285B0B8BF7C
:103D20000131FFF7DBFE30B9024640F25D11434B33
:103D3000434800F007FD00F114052B46002205EB77
:103D40008608434521D304F1140303EB870709F1E7
:103D5000140303EB8A0202923A1B153A22F0030283
:103D6000043204F115018F4238BF04220192029AF5
:103D700003939A420CD8002E03DD58F8043D002B23
:103D800059D0066105B0BDE8F08F43F8042BD8E7A1
:103D9000B3F800A0BAF1000F23D0A9464FF0000CF1
:103DA00004F1140E5EF8042BD9F800101FFA82FB00
:103DB00089B20AFB0B116144D9F800C0120C4FEA1A
:103DC0001C4C0AFB02C202EB114289B241EA0241D9
:103DD00077454FEA124C49F8041BE3D8019A45F89D
:103DE00002C0039A0433B2F80290B9F1000F20D058
:103DF000AE464FF0000A296804F1140CBCF800B07C
:103E0000BEF8022089B209FB0B22924441EA0A4122
:103E10004EF8041B5CF8042BBEF80010120C09FBD2
:103E20000211674501EB1A414FEA114AE6D8019A9F
:103E3000A95004359BE7013E9DE700BFFB4D0008FC
:103E40006C4E00082DE9F843154612F003020646B1
:103E50000F4607D0254C013A002354F82220FFF7E3
:103E60009FFE0746AD103DD0746A7CB91020FFF765
:103E700011FE0246706228B94FF4D7711C4B1D48E1
:103E800000F060FCC0E901440460C460D6F82480FE
:103E9000D8F808404CB940F271213046FFF714FFC2
:103EA00000230446C8F8080003604FF00009EB0740
:103EB0000AD5394622463046FFF71CFF8046394670
:103EC0003046FFF74BFE47466D100BD0206838B9DF
:103ED000224621463046FFF70DFF2060C0F80090D3
:103EE0000446E4E73846BDE8F88300BFB84F000851
:103EF000894D00086C4E00082DE9F0470C46074636
:103F000091462369496803EB6218A3684FEA621A75
:103F100008F10106B3420BDB3846FFF7DFFD05462B
:103F200048B9024640F2D911294B2A4800F00AFC50
:103F300001315B00EEE7002300F1140100F11002F3
:103F40001846534537DB20692AEAEA7A04F114035C
:103F500019F01F0901EB8A0103EB80002FD08A467C
:103F60004FF0000CC9F1200E1A6802FA09F242EA79
:103F70000C024AF8042B53F8042B984222FA0EFC48
:103F8000F2D8031B153B23F00303043304F115029D
:103F9000904238BF042341F803C0BCF1000F01D0A8
:103FA00008F10206013E384621462E61FFF7D6FD94
:103FB0002846BDE8F08742F8040F0133C1E7043911
:103FC00053F8042B984241F8042FF9D8EAE700BFD0
:103FD000FB4D00086C4E000803460A69006930B5C5
:103FE000801A0DD11433143103EB820401EB8201EA
:103FF00054F8045D51F8042D954202D004D30120F9
:1040000030BDA342F4D3FBE74FF0FF30F8E70000E8
:104010002DE9F84F0D460746114628461446FFF78E
:10402000DBFF061E11D131463846FFF757FD024629
:1040300028B940F232213A4B3A4800F083FB012381
:10404000C0E904361046BDE8F88FA4BF23462C46CD
:1040500038466168A6BF1D4600260126FFF73EFDD3
:10406000024618B94FF410712D4BE5E702F1140820
:10407000C2464FF0000C2769C6602E6904F1140097
:1040800005F1140900EB870E09EB8606103454F88D
:1040900004BF59F8043B1FFA8BF18C4499B21B0CF6
:1040A000ACEB0101C3EB1B4303EB214389B24FEAA5
:1040B000234C4E4541EA03434AF8043BE7D8731BBF
:1040C000153B23F0030315350433AE4238BF0423F8
:1040D000184443441E46054675450ED30EF10301B0
:1040E000091A21F003010338864538BF002119441D
:1040F00051F8043D8BB11761A4E755F8048B1FFA02
:1041000088F161440C1404EB184489B241EA04417B
:104110004FEA244C46F8041BDEE7013FE8E700BF06
:10412000FB4D00086C4E00082DE9F3410121DDE94B
:10413000087690461D46FFF7D1FC044630B902468A
:1041400040F20A31244B254800F0FCFAC5F3130372
:10415000C5F30A552DBB0193B8F1000326D068467C
:104160000093FFF783FD0099F0B1019AC0F120039D
:1041700002FA03F30B43C24063610192019B002BDF
:1041800014BF02210121A3612161C5B1A5F233450C
:104190000544C0F135003D603060204602B0BDE806
:1041A000F08143F48013D6E76161E7E701A8FFF7E8
:1041B0005DFD0121019B216163612030E5E704EB96
:1041C0008103A0F2324038601869FFF72FFDC0EB81
:1041D00041113160E1E700BFFB4D00086C4E000863
:1041E00070B5A1FB025434B9294600F075F80646B3
:1041F00028B9304670BD0C2200260260F9E72A4635
:104200002146FDF7D7FDF4E738B50546002940D033
:1042100051F8043C0C1F002BB8BFE41800F032FB2F
:104220001C4A136833B9636014602846BDE83840FF
:1042300000F02EBBA34208D9206821188B4201BF91
:1042400019685B6809182160EDE71A465B680BB1D5
:10425000A342FAD911685018A0420BD1206801443A
:10426000501883421160E0D118685B680144116006
:104270005360DAE702D90C232B60D6E720682118B7
:104280008B4201BF19685B68091821606360546044
:10429000CBE738BD1002002070B50E4E0C463168D9
:1042A000054611B900F0E8F930602146284600F0D3
:1042B000E3F9431C0AD0C41C24F00304A04207D035
:1042C000211A284600F0D8F9013001D14FF0FF340F
:1042D000204670BD140200202DE9F041CD1C25F0D0
:1042E000030508350C2D38BF0C25002D074601DBD2
:1042F000A94205D90C2300263B603046BDE8F08179
:104300002E4E00F0BFFA33681C4634BB29463846AF
:10431000FFF7C2FF431C04464DD134682646002EE9
:1043200040D123683146384604EB030800F0A4F975
:1043300080453AD1216803356D1A25F0030508350B
:104340000C2D38BF0C2538462946FFF7A5FF013054
:104350002BD023682B4423600EE02268521B1ED40E
:104360000B2A16D96119A342256018BF59606368EA
:1043700008BF316062514B60384604F10B0600F013
:1043800087FA26F00706231DF21AB6D09B1BA3500E
:10439000B3E76268A3420CBF32605A60ECE7234681
:1043A0006468B2E734467668B9E70C2338463B6068
:1043B00000F06EFAA1E72560DEE700BF10020020E2
:1043C0002DE9F0478E6882469E420C4690461F4675
:1043D00038D88A8912F4906F32D025680969013380
:1043E000A5EB010965694B4405EB450505EBD57562
:1043F0006D109D4238BF1D46530531D52946FFF744
:104400006BFF064650B90C234FF0FF30CAF800305E
:10441000A38943F04003A381BDE8F0874A462169A0
:10442000FFF74EFBA38923F4906343F08003A3813D
:1044300026614E4426603E466561A5EB0905A560F0
:10444000BE4200D93E4632464146206800F000FA9E
:10445000A36800209B1BA360236833442360DBE731
:104460002A4600F01BFA06460028E1D15046216991
:10447000FFF7CAFEC7E700002DE9F04F98468B8989
:1044800007461B060D4614469DB00ED50B6963B951
:104490004021FFF721FF2860286120B90C233B60F1
:1044A0004FF0FF30D1E040236B61002309932023BC
:1044B0008DF8293030234FF00109CDF80C80DFF85A
:1044C000A4818DF82A3023469A4613F8012B0AB1AD
:1044D000252AF9D1BAEB040B0BD05B4622462946BC
:1044E0003846FFF76DFF013000F0AA80099A5A4460
:1044F00009929AF80030002B00F0A28000234FF0C0
:10450000FF32CDE905230AF1010A049307938DF8E0
:1045100053301A935446052214F8011B5148FFF7F3
:10452000C1FA049AD8B9D00644BF20238DF853307D
:10453000110744BF2B238DF853309AF800302A2BF3
:1045400015D0544600204FF00A0C079A214611F866
:10455000013B303B092B4ED9B0B1079214E0A0EBE0
:10456000080309FA03F31343A2460493D2E7039B1B
:10457000191D1B680391002BBBBF5B4242F0020276
:1045800007930793B8BF049223782E2B0CD163783E
:104590002A2B35D1039B02341A1D1B680392002B72
:1045A000B8BF4FF0FF330593DFF8BCA0032250469D
:1045B0002178FFF777FA40B14023A0EB0A0003FA15
:1045C00000F0049B01340343049314F8011B0622FA
:1045D00026488DF82810FFF765FA002838D0244BBC
:1045E0001BBB039B073323F0070308330393099B8B
:1045F0003344099367E70C4601200CFB0232A5E720
:1046000000234FF00A0C194601340593204610F898
:10461000012B303A092A03D9002BC5D00591C3E7F5
:10462000044601230CFB0121F0E703AB00932A466B
:104630003846104B04A9FDF763FC421C0646D6D150
:10464000AB895B063FF52CAF09981DB0BDE8F08F34
:1046500003AB00932A463846064B04A9FDF7ECFE4F
:10466000EBE700BFC44F0008CA4F0008CE4F000858
:10467000011F0008C143000838B50023054D04465A
:1046800008462B6000F03AFB431C02D12B6803B1B3
:10469000236038BD1802002010B50C46B1F90E1089
:1046A00000F082FA0028ABBF636DA3891B1823F4C6
:1046B0008053ACBF6365A38110BD2DE9F0411F4657
:1046C0008B890546DB050C46164605D502230022DC
:1046D000B1F90E1000F098F8A389324623F4805304
:1046E000A38128463B46B4F90E10BDE8F04100F026
:1046F00017B810B50C46B1F90E1000F085F8431C40
:10470000A38915BF606523F4805343F48053A381CC
:1047100018BFA38110BDB1F90E1000F031B8000030
:1047200038B50446084611460022054D2A601A464F
:10473000FCF763FD431C02D12B6803B1236038BD35
:10474000180200201FB514461A46094B05461B687F
:10475000D8684CB1074BCDE9013400912B4606498E
:1047600000F01EF800F03FFA044B1C46F3E700BFD0
:104770000C000020D54F0008E24F00081050000840
:1047800038B50023054D044608462B6000F07EFA3C
:10479000431C02D12B6803B1236038BD18020020EE
:1047A0000EB403B5014603AB054853F8042B00686B
:1047B000019300F0C9F802B05DF804EB03B0704754
:1047C0000C00002038B50023064D0446084611466B
:1047D0002B6000F063FA431C02D12B6803B1236005
:1047E00038BD00BF1802002038B50023054D04462F
:1047F00008462B6000F062FA431C02D12B6803B11B
:10480000236038BD1802002038B50446084611461A
:104810000022054D2A601A4600F060FA431C02D1BE
:104820002B6803B1236038BD1802002082B001B9A3
:1048300001A942B14BB113780B601278101E18BF5A
:10484000012002B070471046FBE76FF00100F8E767
:10485000884210B501EB020402D98442234607D8EE
:10486000431EA14208D011F8012B03F8012FF8E7ED
:10487000014602448A4200D110BD13F8014D02F8EE
:10488000014DF7E70148FFF79EB800BF0C0200207A
:104890000148FFF799B800BF0C0200202DE9F04154
:1048A000804614460E4621B91146BDE8F041FFF797
:1048B00013BD2AB9FFF7A8FC25462846BDE8F081BC
:1048C00000F098F98442074602D8B4EB500F12D892
:1048D00021464046FFF700FD05460028EDD0BC42CA
:1048E0002246314628BF3A46FFF7EAF831464046AD
:1048F000FFF78AFCE1E73546DFE7936810B4013B38
:10490000002B936007DA9469A34201DB0A2902D1E4
:1049100010BCFDF765BF1368581C1060197008467D
:1049200010BC7047F8B506460F461446D518AC4281
:1049300001D1002007E03A46304614F8011BFFF78A
:10494000DCFF431CF3D1F8BD2DE9F04F0D461446B2
:10495000984606469DB018B183690BB9FEF790FFE3
:10496000894B9D421BD175686B6ED90705D4AB8905
:104970009A0502D4A86DFFF726F8AB891B0701D56D
:104980002B69EBB929463046FDF77CFFC0B16B6E51
:10499000DC070ED54FF0FF301DB0BDE8F08F7B4B2C
:1049A0009D4201D1B568DFE7794B9D4208BFF568AC
:1049B000DAE7AB899805EDD4A86DFFF705F8E9E7CC
:1049C0000023099320238DF8293030234FF001096B
:1049D000CDF80C80DFF8BC818DF82A3023469A464A
:1049E00013F8012B0AB1252AF9D1BAEB040B0BD02D
:1049F0005B46224629463046FFF794FF013000F01F
:104A0000AA80099A5A4409929AF80030002B00F0C3
:104A1000A28000234FF0FF32CDE905230AF1010AFD
:104A2000049307938DF853301A935446052214F8D3
:104A3000011B5848FFF736F8049AD8B9D10644BF8D
:104A400020238DF85330130744BF2B238DF85330A8
:104A50009AF800302A2B15D0544600204FF00A0C4B
:104A6000079A214611F8013B303B092B4ED9B0B1D2
:104A7000079214E0A0EB080309FA03F31343A246DC
:104A80000493D2E7039B191D1B680391002BBBBF46
:104A90005B4242F0020207930793B8BF0492237867
:104AA0002E2B0CD163782A2B35D1039B02341A1D8F
:104AB0001B680392002BB8BF4FF0FF330593DFF85C
:104AC000D8A0032250462178FEF7ECFF40B14023E6
:104AD000A0EB0A0003FA00F0049B013403430493A3
:104AE00014F8011B06222D488DF82810FEF7DAFF76
:104AF00000283FD02A4B1BBB039B073323F007033F
:104B000008330393099B3B44099367E70C46012054
:104B10000CFB0232A5E700234FF00A0C19460134C2
:104B20000593204610F8012B303A092A03D9002BAF
:104B3000C5D00591C3E7044601230CFB0121F0E732
:104B400003AB00932A463046164B04A9FDF7D8F96B
:104B50000746781CD6D16B6ED90705D4AB899A0568
:104B600002D4A86DFEF730FFAB895B063FF512AFAC
:104B7000099811E703AB00932A463046094B04A974
:104B8000FDF75AFCE4E700BF2C4E00084C4E00082D
:104B90000C4E0008C44F0008CA4F0008CE4F000852
:104BA000011F00082549000838B50446084611468B
:104BB0000022054D2A601A4600F098F8431C02D1E5
:104BC0002B6803B1236038BD180200200346084655
:104BD00041B1FF2A04D98A224FF0FF301A60704792
:104BE00001200A707047062008B500F033F8012054
:104BF00000F092F851F8043C181F002BBCBF0B5872
:104C0000C01870471F2938B504460D4604D916232D
:104C100003604FF0FF3038BD426C12B152F82130C2
:104C20004BB9204600F030F82A4601462046BDE840
:104C3000384000F017B8012B0AD0591C03D11623B5
:104C400003600120E7E70024284642F82540984702
:104C50000020E0E7024B01461868FFF7D3BF00BF12
:104C60000C00002038B50023064D044608461146C6
:104C70002B6000F02BF8431C02D12B6803B123609A
:104C800038BD00BF1802002000F010B85822024BB7
:104C90004FF0FF301A607047180200205822024B74
:104CA0004FF0FF301A607047180200205822024B64
:104CB0004FF0FF301A607047180200205822024B54
:104CC00000201A60704700BF180200205822024BD3
:104CD0004FF0FF301A607047180200205822024B34
:104CE0004FF0FF301A607047180200205822024B24
:104CF0004FF0FF301A60704718020020044A034644
:104D0000116809B9034911601068034413607047C2
:104D10001C02002020020020FEE70000F8B500BFC2
:104D2000F8BC08BC9E467047F8B500BFF8BC08BC8C
:044D30009E467047E4
:104D3800252E3266000000002564000010000020C7
:104D4800494E4600696E66004E414E006E616E0027
:104D58003000303132333435363738394142434404
:104D6800454600303132333435363738396162637D
:104D780064656600496E66696E697479004E614EB5
:104D8800005245454E54206D616C6C6F63207375FD
:104D980063636565646564002F6275696C642F6779
:104DA8006E752D746F6F6C732D666F722D73746DC5
:104DB80033325F31302E332D323032312E31302EB6
:104DC80032303231313130352D313130302F73724C
:104DD800632F6E65776C69622F6E65776C69622FD9
:104DE8006C6962632F7374646C69622F64746F6199
:104DF8002E630042616C6C6F632073756363656535
:104E0800646564000000000000000000000000006D
:104E1800000000000000000000000000000000008A
:104E2800000000000000000000000000000000007A
:104E3800000000000000000000000000000000006A
:104E4800000000000000000000000000000000005A
:104E5800000000000000000000000000000000004A
:104E6800000000002F6275696C642F676E752D74E1
:104E78006F6F6C732D666F722D73746D33325F3183
:104E8800302E332D323032312E31302E3230323115
:104E9800313130352D313130302F7372632F6E65DB
:104EA800776C69622F6E65776C69622F6C696263D3
:104EB8002F7374646C69622F6D707265632E630062
:104EC8000080E03779C34143176E05B5B5B89346FE
:104ED800F5F93FE9034F384D321D30F94877825ACA
:104EE8003CBF737FDD4F1575000000000000F03FE8
:104EF80000000000000024400000000000005940AD
:104F08000000000000408F40000000000088C340FF
:104F180000000000006AF8400000000080842E4174
:104F280000000000D01263410000000084D79741C0
:104F38000000000065CDCD41000000205FA00242C6
:104F4800000000E876483742000000A2941A6D423B
:104F5800000040E59C30A2420000901EC4BCD6422E
:104F680000003426F56B0C430080E03779C34143D9
:104F780000A0D8855734764300C84E676DC1AB434F
:104F8800003D9160E458E143408CB5781DAF15446D
:104F980050EFE2D6E41A4B4492D54D06CFF0804448
:104FA800F64AE1C7022DB544B49DD9794378EA445D
:104FB80005000000190000007D000000232D302BA3
:104FC8002000686C4C00656667454647002C2066E3
:104FD800756E6374696F6E3A2000617373657274DD
:104FE800696F6E2022257322206661696C65643AB8
:104FF8002066696C6520222573222C206C696E65F9
:10500800202564257325730A004300504F534958DF
:10501800002E0000202020202020202020282828C2
:105028002828202020202020202020202020202068
:1050380020202020881010101010101010101010B0
:1050480010101010040404040404040404041010D0
:10505800101010101041414141414101010101016D
:105068000101010101010101010101010101011019
:105078001010101010424242424242020202020242
:1050880002020202020202020202020202020210EA
:1050980010101020000000000000000000000000B8
:1050A80000000000000000000000000000000000F8
:1050B80000000000000000000000000000000000E8
:1050C80000000000000000000000000000000000D8
:1050D80000000000000000000000000000000000C8
:1050E80000000000000000000000000000000000B8
:1050F80000000000000000000000000000000000A8
:105108000000000000000000000000000000000097
:045118000000000093
:04511C003501000851
:045120001101000871
:1051240031392E30392A302A31393200100000202A
:10513400000000002C4E00084C4E00080C4E0008E5
:10514400000000000000000000000000000000005B
:10515400000000000000000000000000000000004B
:10516400000000000000000000000000000000003B
:10517400000000000000000000000000000000002B
:10518400000000000000000000000000000000001B
:1051940043000000000000000000000000000000C8
:1051A40000000000000000000000000000000000FB
:1051B40043000000000000000000000000000000A8
:1051C40000000000000000000000000000000000DB
:1051D4004300000000000000000000000000000088
:1051E40000000000000000000000000000000000BB
:1051F4004300000000000000000000000000000068
:10520400000000000000000000000000000000009A
:105214004300000000000000000000000000000047
:10522400000000000000000000000000000000007A
:105234004300000000000000000000000000000027
:10524400000000000000000000000000000000005A
:105254004300000000000000000000000000000007
:10526400000000000000000000000000000000003A
:10527400CD4B00082D480008000000001B5000081A
:105284001950000810500008105000081050000871
:10529400105000081050000810500008105000086A
:1052A4001050000810500008FFFFFFFFFFFFFFFF32
:1052B400FFFFFFFFFFFF0000010041534349490086
:1052C40000000000000000000000000000000000DA
:1052D4000000000000000000000041534349490061
:1052E40000000000000000000000000000000000BA
:0C52F400000000000000000000000000AE
:0400000508001D21B1
:00000001FF
